:020000040000FA
:10000000A0020010C5010000CD010000CF010000DA
:10001000D1010000D3010000D50100000000000064
:10002000000000000000000000000000D7010000F8
:10003000D901000000000000DB0100009105000074
:10004000DF010000DF010000DF010000DF01000030
:10005000DF010000DF010000DF010000DF01000020
:10006000DF010000DF010000DF010000DF01000010
:10007000DF010000DF010000DF010000DF01000000
:10008000DF010000DF010000DF010000DF010000F0
:10009000DF010000DF010000DF010000DF010000E0
:1000A000DF010000DF010000DF010000DF010000D0
:1000B000DF010000DF010000DF010000DF010000C0
:1000C000DF010000DF010000DF010000DF010000B0
:1000D000DF010000DF010000DF010000DF010000A0
:1000E000DF010000DF010000DF010000DF01000090
:1000F000DF010000DF010000DF010000DF01000080
:10010000DF010000DF010000DF010000DF0100006F
:10011000DF0100005D050000C904000021040000AB
:10012000ED030000DF01000000F002F800F03AF8F3
:100130000AA090E8000C82448344AAF10107DA4542
:1001400001D100F02FF8AFF2090EBAE80F0013F05A
:10015000010F18BFFB1A43F001031847B414000045
:10016000D4140000103A24BF78C878C1FAD85207D6
:1001700024BF30C830C144BF04680C607047000021
:100180000023002400250026103A28BF78C1FBD8A0
:10019000520728BF30C148BF0B6070471FB51FBD55
:1001A00010B510BD00F02FF81146FFF7F7FF00F073
:1001B00085FC00F04DF803B4FFF7F2FF03BC00F03C
:1001C00055F800000948804709480047FEE7FEE768
:1001D000FEE7FEE7FEE7FEE7FEE7FEE7FEE7FEE7F7
:1001E00004480549034A054B7047000069070000B1
:1001F00029010000A0000010A0020010A0000010C3
:10020000704770477047754600F02CF8AE46050001
:100210006946534620F00700854618B020B5FFF721
:10022000DFFFBDE820404FF000064FF000074FF021
:1002300000084FF0000B21F00701AC46ACE8C00904
:10024000ACE8C009ACE8C009ACE8C0098D4670470D
:1002500010B50446AFF300802046BDE81040FFF71C
:10026000AABF000000487047400000100149182054
:10027000ABBEFEE726000200704701B502E0009821
:10028000401E009000980028F9D108BD044800687D
:1002900040F0400002498039C1F8800070470000FA
:1002A0008080044010B57AB10F4B53F8203003F52D
:1002B00000431B6801248C4023430B4C54F820401E
:1002C00004F5004423600EE0074B53F8203003F59B
:1002D00000431B6801248C40A343034C54F8204086
:1002E00004F50044236010BD001600000808A0F5C6
:1002F00000114FEA3101704700000000FFFFFFFFCF
:1003000030B101280CD0022812D0032820D117E0E8
:10031000114AD26901238B401A430F4BDA6118E06E
:100320000E4AD26901238B401A430C4BDA6110E06C
:100330000B4AD36901228A401343094AD36108E07A
:10034000084AD36901228A401343064AD36100E078
:1003500000BF00BF704700000080005000800150C7
:10036000008002500080035010B50246002032B1D8
:10037000012A0CD0022A12D0032A20D117E0114BF7
:100380009B6901248C40234003B1012018E00E4BEF
:100390009B6901248C40234003B1012010E00B4BEA
:1003A0009B6901248C40234003B1012008E0084BE5
:1003B0009B6901248C40234003B1012000E000BF71
:1003C00000BF10BD0080005000800150008002502E
:1003D0000080035000F01F02012191404209920069
:1003E00002F1E022C2F800117047000010B50A487F
:1003F0000068401C0849086001210020FFF7B4FF95
:10040000044644B105480068401C044908600121C5
:100410000020FFF775FF10BD100000101400001041
:1004200030B500BF2248006800F010000028F9D065
:100430002048FFF722FF72B61F49087800F07AFBC8
:100440001D4802680068401C1B4B18601B4850F890
:100450002210481EB0F1807F00D31BE0481E4FF0F1
:10046000E022506150170722002807DA53071D0EBB
:10047000134B00F00F04241F1D5503E053071C0EFF
:10048000104B1C5400BF00204FF0E0229061072069
:10049000106100BF08480068032802D10020064907
:1004A000086062B60421012000F0C4F930BD0000EC
:1004B000FC3F0150A08601000C0000103400001029
:1004C00018ED00E000E400E000B500BF1F48006840
:1004D00000F400700028F9D01D48FFF7CEFE1D483B
:1004E0000078012802D002282AD114E002201949FC
:1004F00008701948006840F00F0017490860134859
:10050000006840F0F000114908600846006820F0DB
:100510000100086014E001200E4908700E480068D0
:1005200020F00F000C4908600848006820F0F00037
:10053000064908600846006840F00100086000BFF6
:1005400000BF0921022000F075F900BDFC3F0250F8
:10055000A086010000000010FC3F035010B50A48BF
:100560000068401C0849086001210320FFF7FCFED9
:10057000044644B105480068401C04490860012154
:100580000320FFF7BDFE10BD280000102C00001056
:100590001348007801280DD1124800783F2803D174
:1005A00000201049087015E00E480078401C0D49E5
:1005B00008700FE00A48007802280BD1094800783B
:1005C00018B93F200749087004E006480078401E2B
:1005D00004490870034800784001034908607047E7
:1005E0000000001008000010FC3F015000204C49A2
:1005F000496AC1F34311102929D2DFE801F0080A42
:100600000C0E10121416181A1C1E2022242600206C
:100610001DE044481BE0444819E0444817E04448C2
:1006200015E0444813E0444811E044480FE04448D2
:100630000DE044480BE0444809E0444807E04448E2
:1006400005E0444803E0444801E0444800BF00BFDF
:100650003349496A01F01F01022202EB4101B0FB5C
:10066000F1F02F49096F01F0030131B1012908D0E0
:10067000022921D0032949D121E03949394A1160A1
:1006800044E02749096C01F0030131B1012908D088
:1006900002290AD003290DD108E03149314A1160FD
:1006A00008E02F492F4A116004E000BF00212D4AC5
:1006B000116000BF00BF29E02A49086026E0184900
:1006C000096C01F0030131B101290ED0022916D0C5
:1006D000032919D114E01249896801F01F01491C4E
:1006E0001F4A51431F4A11600EE00D49896801F00D
:1006F0001F01491C1A4A51431A4A116004E000BF05
:100700000021184A116000BF00BF00BF00BF0449AC
:10071000896F144A1268B2FBF1F1124A11607047F6
:100720000080044020A1070000350C00E0C8100044
:10073000C05C1500006A180040771B0080841E0012
:10074000C0912100009F240040AC2700E032290026
:1007500020402C00604D2F0000D4300040E13300D9
:10076000001BB7003000001008B53048006820F0CA
:1007700020002F49C1F8380200200862009003E0F1
:1007800000BF0098401C00900098C828F8D30120B2
:1007900027490864002048640120486425208860B7
:1007A0002248006820F08000C1F8380200BF2048CD
:1007B000C06800F001000028F9D003201C49086738
:1007C000002048670120486788670846806F1849FD
:1007D000B03108601648D0F8380220F4806014491F
:1007E000C1F838020846D0F8380220F480700F496A
:1007F000086001200E4988640020C8640120C86494
:100800002320086100BF0A48406900F00100002869
:10081000F9D000200649C03108600549C1F8C00080
:1008200001200349C831086008BD00003882044037
:100830000080044001228A40034B53F8203003F526
:100840000043DA6170470000F01500002DE9F04F19
:1008500087B083468A46BAF16D0F02D14FF47A70A1
:1008600000E0184806901848006800F0B6FD0646FB
:100870000F46069800F0B1FD0022144BCDE90001AF
:1008800000F0BEFDCDE90201584600F0A6FD80460D
:10089000DDE9022300F01CFC32463B46CDE90401B1
:1008A00000F0AEFD044600F06BFD09490A680968D6
:1008B000491C074B1960074941F8220007B0BDE801
:1008C000F08F000040420F00300000100000504048
:1008D00004000010340000101E4A52F8202002F5D7
:1008E0000042526801238B409A431A4B53F8203040
:1008F00003F500435A60174A52F8202002F50042DF
:10090000D26801238B401A43124B53F8203003F571
:100910000043DA600F4A52F8202002F500421269C3
:1009200001238B401A430B4B53F8203003F500434F
:100930001A61084A52F8202002F50042D3690122C8
:100940008A401343034A52F8202002F50042D36143
:1009500070470000F015000010B500F06DFBFFF7C8
:1009600045FE0B48006840F4803009498039C1F8E1
:100970008000FFF78BFC00F020F800F04AF800F050
:100980003CF800F070F84FF47C600249086010BD3C
:1009900080800440FC3F015010B509210220FFF780
:1009A0009BFF04210120FFF797FF3620FFF712FD80
:1009B0003720FFF70FFD62B610BD10B501220521EB
:1009C0001046FFF76FFC012206211046FFF76AFC74
:1009D000012207211046FFF765FC0122082110467D
:1009E000FFF760FC012209211046FFF75BFC0122A2
:1009F0000A211046FFF756FC10BD10B50022092150
:100A00000220FFF74FFC002204210120FFF74AFCDF
:100A100010BD10B5012207210020FFF743FC012281
:100A200008210020FFF73EFC012209210020FFF7EA
:100A300039FC012204210020FFF734FC01220321AC
:100A40000020FFF72FFC012202210020FFF72AFCE3
:100A5000012205210020FFF725FC012200210220B0
:100A6000FFF720FC10BD10B5012200210320FFF785
:100A700019FC012211460320FFF714FC0122022178
:100A80000320FFF70FFC012203210846FFF70AFCB1
:100A9000012204210220FFF705FC0122052102208A
:100AA000FFF700FC012206210220FFF7FBFB0122D9
:100AB00007210220FFF7F6FB10BD0000FFF74CFFF7
:100AC000FFF76AFF1948006820F020001749086006
:100AD0000846006820F4007008600846006820F4AA
:100AE000807008600846006820F0800008600846B2
:100AF000006820F0040008600846006820F0080044
:100B000008600B48006820F00100094908606D2169
:100B10000220FFF79BFE6D210120FFF797FE752154
:100B20004FF4FA70FFF792FE00BFFEE7FC3F005063
:100B3000FC3F02500A2843D2DFE800F0054381BFA2
:100B4000FDFCFBFAF9F8FB49096821F02001F94A9C
:100B500011601146096821F400711160114609689D
:100B600021F4807111601146096821F08001116043
:100B70001146096821F0040111601146096821F04D
:100B8000080111601146096841F020011160114609
:100B9000096841F4007111601146096841F48071DF
:100BA00011601146096841F0800111601146096821
:100BB00041F0040111601146096841F0080111601B
:100BC00036E2DC49096821F02001DA4A1160114659
:100BD000096821F4007111601146096821F48071DF
:100BE00011601146096821F0800111601146096801
:100BF00021F0040111601146096821F0080111601B
:100C00001146096821F0200111601146096841F47C
:100C1000007111601146096841F48071116011463C
:100C2000096821F0800111601146096821F0040172
:100C300011601146096821F008011160F8E1BD4911
:100C4000096821F02001BB4A11601146096821F4AE
:100C5000007111601146096821F48071116011461C
:100C6000096821F0800111601146096821F0040132
:100C700011601146096821F00801116011460968E8
:100C800041F0200111601146096841F400711160C2
:100C90001146096821F4807111601146096841F01C
:100CA000800111601146096841F00401116011468C
:100CB000096821F008011160BAE19E49096821F034
:100CC00020019C4A11601146096821F400711160ED
:100CD0001146096821F4807111601146096821F0FC
:100CE000800111601146096821F00401116011466C
:100CF000096821F0080111601146096841F02001DE
:100D000011601146096841F40071116011460968CB
:100D100041F4807111601146096841F08001116051
:100D20001146096821F00401116005E042E103E188
:100D3000C2E083E044E005E01146096821F00801C3
:100D4000116075E17B49096821F02001794A116041
:100D50001146096821F4007111601146096821F4F7
:100D6000807111601146096821F0800111601146FF
:100D7000096821F0040111601146096821F0080199
:100D800011601146096821F02001116011460968BF
:100D900041F4007111601146096841F480711160DD
:100DA0001146096821F0800111601146096821F09F
:100DB000040111601146096841F00801116037E132
:100DC0005C49096821F020015A4A116011460968FE
:100DD00021F4007111601146096821F480711160DD
:100DE0001146096821F0800111601146096821F05F
:100DF000040111601146096821F0080111601146D3
:100E0000096841F0200111601146096821F4007160
:100E100011601146096841F480711160114609683A
:100E200041F0800111601146096821F00401116050
:100E30001146096841F008011160F9E03D4909686F
:100E400021F020013B4A11601146096821F400712C
:100E500011601146096821F480711160114609681A
:100E600021F0800111601146096821F00401116030
:100E70001146096821F0080111601146096841F026
:100E8000200111601146096821F4007111601146BA
:100E9000096841F4807111601146096841F08001D0
:100EA00011601146096841F004011160114609689A
:100EB00041F008011160BBE01E49096821F02001E2
:100EC0001C4A11601146096821F400711160114635
:100ED000096821F4807111601146096821F08001D0
:100EE00011601146096821F004011160114609687A
:100EF00021F0080111601146096841F020011160DC
:100F00001146096841F4007111601146096841F405
:100F1000807111601146096821F08001116011464D
:100F2000096821F0040111601146096821F00801E7
:100F300011607DE0FC3F00503E49096821F020012E
:100F40003C4A11601146096821F400711160114694
:100F5000096821F4807111601146096821F080014F
:100F600011601146096821F00401116011460968F9
:100F700021F0080111601146096841F0200111605B
:100F80001146096841F4007111601146096841F485
:100F9000807111601146096841F0800111601146AD
:100FA000096841F0040111601146096841F0080127
:100FB00011603DE01F49096821F020011D4A1160C0
:100FC0001146096821F4007111601146096821F485
:100FD000807111601146096821F08001116011468D
:100FE000096821F0040111601146096821F0080127
:100FF00011601146096841F020011160114609682D
:1010000041F4007111601146096841F4807111606A
:101010001146096841F0800111601146096821F00C
:10102000040111601146096841F00801116000BF18
:1010300000BF7047FC3F00502348006F20F00300C2
:10104000214908670846406F20F0010048670846BC
:10105000406F40F0010048670846006C40F0010016
:1010600008640846406C20F0010048640846406C63
:1010700040F001004864012088671448006840F08F
:101080008000C1F83802252088600846D0F8380270
:1010900020F08000C1F8380200BF0B48C06800F0A3
:1010A00001000028F9D00848006F40F0030006490D
:1010B00008670846406F20F0010048670846406F07
:1010C00040F00100486770470080044038820440C7
:1010D0002DE9C04130B4DFF8A0C23CEA111418BFBA
:1010E0003CEA131400F0EC8081EA03051CEA1114B9
:1010F00044EAD57418BF1CEA131500F0C780A4EBAE
:1011000005044FF0004545EAC12145EAC32341EA01
:10111000505143EA525304F17F74994204F500346C
:101120004FEAC0204FEAC22208BF904200F09C80E4
:101130004FEA13650FF24016765D4FEA134506FB42
:1011400005F7C7F1807706FB07F74FEAD737A7FB0C
:1011500003687642C8F58038A7FB06CE38BFA8F1F1
:10116000010807FB08E64FF0000EA6FB028CE6FB29
:1011700003CEDCF1000CCEF1004E38BFAEF1010E13
:10118000A6FB0C584FF000074FF00005E6FB0E875A
:10119000A1FB08C6A0FB07CE16EB0E0645F1000525
:1011A000E1FB076515F1E04E7EBFA4F580345FEAF0
:1011B00046066D4116F1800745F100054FEA1727F5
:1011C0004FEA066647EA0567A6F1DE46B6F1805F9C
:1011D0004FEA15251FD9384624F0010C05EBC471E0
:1011E000BCF1FE6F01EB0C1102D8F0BCBDE8008130
:1011F00024425CBF01F5801E9EEAC47F02D4F0BC8D
:10120000BDE80081244238D4F0BCA1F1C041BDE862
:101210000041FFF76BB84FEAD22242EA43524FEA4D
:10122000D323A7FB02864FEAD02040EA415007FBB8
:1012300003661EEA0E0F4FEAD12105FB026658BF76
:10124000A6EB0056B6EB00564FEA520E4EEAC37EAE
:1012500018EB0E0E56EB530EBDD518EB02085E418F
:101260007F1C55F10005B6E74FF480154FF00007DD
:101270004FF000064FF00008ADE7F0BC4FF0000063
:1012800001F1C04101F00041BDE8008111EA0C1FED
:101290000CEA131500D00CE013EA0C1F00F02580B7
:1012A0004FF00000F0BC81EA030101F00041BDE80D
:1012B0000081F0BCBDE8004181EA0301FFF716B8E8
:1012C000F0BCBDE8004170B500F044F9097EFC3E79
:1012D00000F007B881EA03014FF0000001F000417F
:1012E000704781EA0301FFF701B8F0BCBDE8004197
:1012F0004FF0000021497047FFFDFBF9F7F5F4F2CC
:10130000F0EEEDEBE9E8E6E4E3E1E0DEDDDBDAD8A0
:10131000D7D5D4D3D1D0CFCDCCCBCAC8C7C6C5C4FE
:10132000C2C1C0BFBEBDBCBBBAB9B8B7B6B5B4B315
:10133000B2B1B0AFAEADACABAAA9A8A8A7A6A5A400
:10134000A3A3A2A1A09F9F9E9D9C9C9B9A999998C4
:101350009797969595949393929191908F8F8E8E67
:101360008D8C8C8B8B8A89898888878786858584F4
:1013700084838382828181800000FF070000F87FE0
:101380004FEA1153A3F58063D3F11E03A8BFD3F135
:10139000200C08DB4FF0004242EAC12252EA5052D0
:1013A00032FA03F0704709420BD4102BC4BF00205F
:1013B000704703F5787CBCF1FF3F05D04FF0FF305C
:1013C00070474FF00000704770B500F0C3F800BFE1
:1013D0004992248000207047F0E7B0FA80F310FAB9
:1013E00003F10AD0C3F11D0303F580634FEA4150B6
:1013F0004FEA035202EBD12170474FF000007047D3
:10140000DFF848C170B51CEA111E1EBF1CEA131597
:101410009EEA0C0F95EA0C0F00F06F8081EA03043E
:1014200023EA4C134EEAD47E21EA4C1141F4801198
:1014300043F48013AE44A1FB024CA0FB0365AEF164
:101440007F7E361955EB0C05A1FB034C4CF10003D4
:10145000A0FB021C16EB0C06654153F10003094288
:1014600018BF46F0010613F4007F0BD14FEA033199
:101470004FEA0530340341EA155140EA16506FF047
:1014800003020AE04FEAC3214FEAC520F40241EA11
:10149000555140EA56506FF0020202EB2E4201EB2A
:1014A000025585EACE710AD05FEA440C18BF24F0D9
:1014B000004450F1000041F1000120EAD47040F2F4
:1014C000FE7C624500D270BDA84214BF4FF080443C
:1014D0004FF04044002E08BF0024BEF1806FA8BF2B
:1014E000A1F1C041BDE87040BEF600AF4FF0000072
:1014F00001F1C04101F0004170479EEA0C0F0CEA77
:10150000131518BF95EA0C0F06D04FF0000081EAC2
:10151000030E0EF0004170BD00F01CF88900013E82
:1015200000F007B800F009B84FEA430C5FEA5C5CD2
:1015300008D081EA0301FEF7D9BE4FEA410C5FEA09
:101540005C5CF6D14FF00000014970470000FF07D6
:101550000000F87F0EF1020E2EF0030E5EF8046B11
:10156000364205D4012A43EB030515F5001F12D8B6
:10157000012841EB010C1CF5001F0CD80ED14FEADD
:10158000D17C15F5001F0CEB4C0C0CF1020C08BFC4
:101590004CEBD37C04E04FF0080C01E04FEAD37C25
:1015A0000CEB4C0526FA05F606F00706B6F1040C1E
:1015B00006D20EEB860CBDE870404CF0010C604783
:1015C000DFE80CF0090B02024FF000414FF0000081
:1015D000A1F5002170BD19461046012851EB010408
:1015E00018BFD4F5001484BF002001F0004170BD85
:1015F00000000050000001500000025000000350A5
:101600000000005000000150000002500000035094
:1016100030160000000000103400000064010000DB
:1016200064160000340000106C020000800100000D
:1016300001000000000000000000000000000000A9
:10164000000000000000000000000000000000009A
:10165000000000000000000000000000000000008A
:0416600000A24A0496
:04000005000001C531
:00000001FF
